{
  "contractName": "DelicateDinosToken",
  "abi": [
    {
      "inputs": [],
      "stateMutability": "nonpayable",
      "type": "constructor"
    },
    {
      "anonymous": false,
      "inputs": [
        {
          "indexed": true,
          "internalType": "address",
          "name": "_from",
          "type": "address"
        },
        {
          "indexed": true,
          "internalType": "address",
          "name": "_to",
          "type": "address"
        },
        {
          "indexed": false,
          "internalType": "uint256",
          "name": "_value",
          "type": "uint256"
        }
      ],
      "name": "Transfer",
      "type": "event"
    },
    {
      "inputs": [],
      "name": "name",
      "outputs": [
        {
          "internalType": "string",
          "name": "",
          "type": "string"
        }
      ],
      "stateMutability": "view",
      "type": "function",
      "constant": true
    },
    {
      "inputs": [],
      "name": "symbol",
      "outputs": [
        {
          "internalType": "string",
          "name": "",
          "type": "string"
        }
      ],
      "stateMutability": "view",
      "type": "function",
      "constant": true
    },
    {
      "inputs": [
        {
          "internalType": "address",
          "name": "receiver",
          "type": "address"
        },
        {
          "internalType": "uint256",
          "name": "amount",
          "type": "uint256"
        }
      ],
      "name": "sendCoin",
      "outputs": [
        {
          "internalType": "bool",
          "name": "sufficient",
          "type": "bool"
        }
      ],
      "stateMutability": "nonpayable",
      "type": "function"
    },
    {
      "inputs": [
        {
          "internalType": "address",
          "name": "receiver",
          "type": "address"
        },
        {
          "internalType": "uint256",
          "name": "amount",
          "type": "uint256"
        }
      ],
      "name": "faucetCoin",
      "outputs": [
        {
          "internalType": "bool",
          "name": "sufficient",
          "type": "bool"
        }
      ],
      "stateMutability": "nonpayable",
      "type": "function"
    },
    {
      "inputs": [
        {
          "internalType": "address",
          "name": "addr",
          "type": "address"
        }
      ],
      "name": "getBalanceInEth",
      "outputs": [
        {
          "internalType": "uint256",
          "name": "",
          "type": "uint256"
        }
      ],
      "stateMutability": "view",
      "type": "function",
      "constant": true
    },
    {
      "inputs": [
        {
          "internalType": "address",
          "name": "addr",
          "type": "address"
        }
      ],
      "name": "getBalance",
      "outputs": [
        {
          "internalType": "uint256",
          "name": "",
          "type": "uint256"
        }
      ],
      "stateMutability": "view",
      "type": "function",
      "constant": true
    }
  ],
  "bytecode": "0x60806040526040518060400160405280601481526020017f44656c69636174652044696e6f7320546f6b656e0000000000000000000000008152506001908051906020019061004f9291906100f3565b506040518060400160405280600381526020017f444e4f00000000000000000000000000000000000000000000000000000000008152506002908051906020019061009b9291906100f3565b503480156100a857600080fd5b506127106000803273ffffffffffffffffffffffffffffffffffffffff1673ffffffffffffffffffffffffffffffffffffffff168152602001908152602001600020819055506101f7565b8280546100ff90610196565b90600052602060002090601f0160209004810192826101215760008555610168565b82601f1061013a57805160ff1916838001178555610168565b82800160010185558215610168579182015b8281111561016757825182559160200191906001019061014c565b5b5090506101759190610179565b5090565b5b8082111561019257600081600090555060010161017a565b5090565b600060028204905060018216806101ae57607f821691505b602082108114156101c2576101c16101c8565b5b50919050565b7f4e487b7100000000000000000000000000000000000000000000000000000000600052602260045260246000fd5b61098e806102066000396000f3fe608060405234801561001057600080fd5b50600436106100625760003560e01c806306fdde03146100675780636c18bdee146100855780637bd703e8146100b557806390b98a11146100e557806395d89b4114610115578063f8b2cb4f14610133575b600080fd5b61006f610163565b60405161007c91906106f0565b60405180910390f35b61009f600480360381019061009a91906105fb565b6101f1565b6040516100ac91906106d5565b60405180910390f35b6100cf60048036038101906100ca91906105d2565b6102b7565b6040516100dc9190610712565b60405180910390f35b6100ff60048036038101906100fa91906105fb565b610352565b60405161010c91906106d5565b60405180910390f35b61011d6104bd565b60405161012a91906106f0565b60405180910390f35b61014d600480360381019061014891906105d2565b61054b565b60405161015a9190610712565b60405180910390f35b6001805461017090610889565b80601f016020809104026020016040519081016040528092919081815260200182805461019c90610889565b80156101e95780601f106101be576101008083540402835291602001916101e9565b820191906000526020600020905b8154815290600101906020018083116101cc57829003601f168201915b505050505081565b6000816000803373ffffffffffffffffffffffffffffffffffffffff1673ffffffffffffffffffffffffffffffffffffffff16815260200190815260200160002060008282546102419190610772565b925050819055508273ffffffffffffffffffffffffffffffffffffffff163373ffffffffffffffffffffffffffffffffffffffff167fddf252ad1be2c89b69c2b068fc378daa952ba7f163c4a11628f55a4df523b3ef846040516102a59190610712565b60405180910390a36001905092915050565b600073__ConvertLib____________________________6396e4ee3d6102dc8461054b565b60026040518363ffffffff1660e01b81526004016102fb92919061072d565b60206040518083038186803b15801561031357600080fd5b505af4158015610327573d6000803e3d6000fd5b505050506040513d601f19601f8201168201806040525081019061034b9190610637565b9050919050565b6000816000803373ffffffffffffffffffffffffffffffffffffffff1673ffffffffffffffffffffffffffffffffffffffff1681526020019081526020016000205410156103a357600090506104b7565b816000803373ffffffffffffffffffffffffffffffffffffffff1673ffffffffffffffffffffffffffffffffffffffff16815260200190815260200160002060008282546103f191906107c8565b92505081905550816000808573ffffffffffffffffffffffffffffffffffffffff1673ffffffffffffffffffffffffffffffffffffffff16815260200190815260200160002060008282546104469190610772565b925050819055508273ffffffffffffffffffffffffffffffffffffffff163373ffffffffffffffffffffffffffffffffffffffff167fddf252ad1be2c89b69c2b068fc378daa952ba7f163c4a11628f55a4df523b3ef846040516104aa9190610712565b60405180910390a3600190505b92915050565b600280546104ca90610889565b80601f01602080910402602001604051908101604052809291908181526020018280546104f690610889565b80156105435780601f1061051857610100808354040283529160200191610543565b820191906000526020600020905b81548152906001019060200180831161052657829003601f168201915b505050505081565b60008060008373ffffffffffffffffffffffffffffffffffffffff1673ffffffffffffffffffffffffffffffffffffffff168152602001908152602001600020549050919050565b6000813590506105a28161092a565b92915050565b6000813590506105b781610941565b92915050565b6000815190506105cc81610941565b92915050565b6000602082840312156105e457600080fd5b60006105f284828501610593565b91505092915050565b6000806040838503121561060e57600080fd5b600061061c85828601610593565b925050602061062d858286016105a8565b9150509250929050565b60006020828403121561064957600080fd5b6000610657848285016105bd565b91505092915050565b6106698161080e565b82525050565b61067881610844565b82525050565b600061068982610756565b6106938185610761565b93506106a3818560208601610856565b6106ac81610919565b840191505092915050565b6106c08161083a565b82525050565b6106cf8161083a565b82525050565b60006020820190506106ea6000830184610660565b92915050565b6000602082019050818103600083015261070a818461067e565b905092915050565b600060208201905061072760008301846106b7565b92915050565b600060408201905061074260008301856106c6565b61074f602083018461066f565b9392505050565b600081519050919050565b600082825260208201905092915050565b600061077d8261083a565b91506107888361083a565b9250827fffffffffffffffffffffffffffffffffffffffffffffffffffffffffffffffff038211156107bd576107bc6108bb565b5b828201905092915050565b60006107d38261083a565b91506107de8361083a565b9250828210156107f1576107f06108bb565b5b828203905092915050565b60006108078261081a565b9050919050565b60008115159050919050565b600073ffffffffffffffffffffffffffffffffffffffff82169050919050565b6000819050919050565b600061084f8261083a565b9050919050565b60005b83811015610874578082015181840152602081019050610859565b83811115610883576000848401525b50505050565b600060028204905060018216806108a157607f821691505b602082108114156108b5576108b46108ea565b5b50919050565b7f4e487b7100000000000000000000000000000000000000000000000000000000600052601160045260246000fd5b7f4e487b7100000000000000000000000000000000000000000000000000000000600052602260045260246000fd5b6000601f19601f8301169050919050565b610933816107fc565b811461093e57600080fd5b50565b61094a8161083a565b811461095557600080fd5b5056fea2646970667358221220679e958c2fe04a6a6d09ae8e887db0463abd17b1f0b76951ac404cf92ae71e4664736f6c63430008040033",
  "immutableReferences": {},
  "source": "// SPDX-License-Identifier: MIT\npragma solidity ^0.8.4;\n\nimport \"./ConvertLib.sol\";\n\n// This is just a simple example of a coin-like contract.\n// It is not standards compatible and cannot be expected to talk to other\n// coin/token contracts. If you want to create a standards-compliant\n// token, see: https://github.com/ConsenSys/Tokens. Cheers!\n\ncontract DelicateDinosToken {\n    mapping(address => uint256) balances;\n\n    event Transfer(address indexed _from, address indexed _to, uint256 _value);\n\n    constructor() public {\n        balances[tx.origin] = 10000;\n    }\n\n    string public name = \"Delicate Dinos Token\";\n    string public symbol = \"DNO\";\n\n    function sendCoin(address receiver, uint256 amount)\n        public\n        returns (bool sufficient)\n    {\n        if (balances[msg.sender] < amount) return false;\n        balances[msg.sender] -= amount;\n        balances[receiver] += amount;\n        emit Transfer(msg.sender, receiver, amount);\n        return true;\n    }\n\n    function faucetCoin(address receiver, uint256 amount)\n        public\n        returns (bool sufficient)\n    {\n        balances[msg.sender] += amount;\n        emit Transfer(msg.sender, receiver, amount);\n        return true;\n    }\n\n    function getBalanceInEth(address addr) public view returns (uint256) {\n        return ConvertLib.convert(getBalance(addr), 2);\n    }\n\n    function getBalance(address addr) public view returns (uint256) {\n        return balances[addr];\n    }\n}\n",
  "sourcePath": "/Users/dinu/work/Crypto/CREVO/delicate-dinos-app/Truffle/contracts/DelicateDinosToken.sol",
  "compiler": {
    "name": "solc",
    "version": "0.8.4+commit.c7e474f2.Emscripten.clang"
  },
  "schemaVersion": "3.4.4",
  "updatedAt": "2022-02-14T21:55:09.404Z",
  "networkType": "ethereum",
  "devdoc": {
    "kind": "dev",
    "methods": {},
    "version": 1
  },
  "userdoc": {
    "kind": "user",
    "methods": {},
    "version": 1
  }
}