{
  "contractName": "DelicateDinos",
  "abi": [
    {
      "inputs": [],
      "stateMutability": "nonpayable",
      "type": "constructor"
    },
    {
      "anonymous": false,
      "inputs": [
        {
          "indexed": true,
          "internalType": "address",
          "name": "_to",
          "type": "address"
        },
        {
          "indexed": false,
          "internalType": "uint256",
          "name": "_tokenId",
          "type": "uint256"
        }
      ],
      "name": "Mint",
      "type": "event"
    },
    {
      "inputs": [],
      "name": "name",
      "outputs": [
        {
          "internalType": "string",
          "name": "",
          "type": "string"
        }
      ],
      "stateMutability": "view",
      "type": "function",
      "constant": true
    },
    {
      "inputs": [
        {
          "internalType": "address",
          "name": "addr",
          "type": "address"
        }
      ],
      "name": "mint",
      "outputs": [],
      "stateMutability": "nonpayable",
      "type": "function"
    }
  ],
  "bytecode": "0x60806040526040518060400160405280600e81526020017f44656c69636174652044696e6f730000000000000000000000000000000000008152506001908051906020019061004f929190610062565b5034801561005c57600080fd5b50610166565b82805461006e90610105565b90600052602060002090601f01602090048101928261009057600085556100d7565b82601f106100a957805160ff19168380011785556100d7565b828001600101855582156100d7579182015b828111156100d65782518255916020019190600101906100bb565b5b5090506100e491906100e8565b5090565b5b808211156101015760008160009055506001016100e9565b5090565b6000600282049050600182168061011d57607f821691505b6020821081141561013157610130610137565b5b50919050565b7f4e487b7100000000000000000000000000000000000000000000000000000000600052602260045260246000fd5b61046b806101756000396000f3fe608060405234801561001057600080fd5b50600436106100365760003560e01c806306fdde031461003b5780636a62784214610059575b600080fd5b610043610075565b60405161005091906102a4565b60405180910390f35b610073600480360381019061006e91906101f5565b610103565b005b6001805461008290610383565b80601f01602080910402602001604051908101604052809291908181526020018280546100ae90610383565b80156100fb5780601f106100d0576101008083540402835291602001916100fb565b820191906000526020600020905b8154815290600101906020018083116100de57829003601f168201915b505050505081565b6000808273ffffffffffffffffffffffffffffffffffffffff1673ffffffffffffffffffffffffffffffffffffffff16815260200190815260200160002060009054906101000a900460ff1661018e576040517f08c379a0000000000000000000000000000000000000000000000000000000008152600401610185906102c6565b60405180910390fd5b8073ffffffffffffffffffffffffffffffffffffffff167f0f6798a560793a54c3bcfe86a93cde1e73087d944c0ea20544137d412139688560016040516101d59190610289565b60405180910390a250565b6000813590506101ef8161041e565b92915050565b60006020828403121561020757600080fd5b6000610215848285016101e0565b91505092915050565b6102278161033e565b82525050565b6000610238826102e6565b61024281856102f1565b9350610252818560208601610350565b61025b816103e4565b840191505092915050565b6000610273600f836102f1565b915061027e826103f5565b602082019050919050565b600060208201905061029e600083018461021e565b92915050565b600060208201905081810360008301526102be818461022d565b905092915050565b600060208201905081810360008301526102df81610266565b9050919050565b600081519050919050565b600082825260208201905092915050565b600061030d82610314565b9050919050565b600073ffffffffffffffffffffffffffffffffffffffff82169050919050565b6000819050919050565b600061034982610334565b9050919050565b60005b8381101561036e578082015181840152602081019050610353565b8381111561037d576000848401525b50505050565b6000600282049050600182168061039b57607f821691505b602082108114156103af576103ae6103b5565b5b50919050565b7f4e487b7100000000000000000000000000000000000000000000000000000000600052602260045260246000fd5b6000601f19601f8301169050919050565b7f6e6f742077686974656c69737465640000000000000000000000000000000000600082015250565b61042781610302565b811461043257600080fd5b5056fea2646970667358221220dfb325edaed4b417788b1cdfffce67b2569e4a0cf6b8c9c1622976483c77a5b364736f6c63430008040033",
  "immutableReferences": {},
  "source": "// SPDX-License-Identifier: MIT\npragma solidity ^0.8.4;\n\ncontract DelicateDinos {\n    mapping(address => bool) whitelisted;\n\n    event Mint(address indexed _to, uint256 _tokenId);\n\n    constructor() {}\n\n    string public name = \"Delicate Dinos\";\n\n\n    function mint(address addr) public {\n        require(whitelisted[addr], 'not whitelisted');\n        emit Mint(addr, 1);\n    }\n}\n",
  "sourcePath": "/Users/dinu/work/Crypto/CREVO/delicate-dinos-app/Truffle/contracts/DelicateDinos.sol",
  "compiler": {
    "name": "solc",
    "version": "0.8.4+commit.c7e474f2.Emscripten.clang"
  },
  "schemaVersion": "3.4.4",
  "updatedAt": "2022-02-14T21:55:09.403Z",
  "networkType": "ethereum",
  "devdoc": {
    "kind": "dev",
    "methods": {},
    "version": 1
  },
  "userdoc": {
    "kind": "user",
    "methods": {},
    "version": 1
  }
}